:020000040000FA
:100000006840002061070000690700006B070000DE
:100010006D0700006F07000071070000000000007E
:100020000000000000000000000000007307000056
:100030007507000000000000770700007907000046
:100040007B0700007B0700007B0700007B070000A8
:100050007B0700007B0700007B0700007B07000098
:100060007B0700007B0700007B0700007B07000088
:100070007B0700007B0700007B0700007B07000078
:100080007B0700007B0700007B0700007B07000068
:100090007B0700007B0700007B0700007B07000058
:1000A0007B0700007B0700007B0700007B07000048
:1000B0007B0700007B07000000000000000000003C
:1000C0007B0700007B0700007B0700007B07000028
:1000D0007B0700007B0700007B070000000000009A
:1000E0000000000000000000000000000000000010
:1000F0000000000000000000000000000000000000
:1001000000000000000000000000000000000000EF
:1001100000000000000000000000000000000000DF
:1004000000F002F800F045F80AA090E8000C8244E1
:100410008344AAF10107DA4501D100F03AF8AFF2BE
:10042000090EBAE80F0013F0010F18BFFB1A43F0D2
:1004300001031847FC0E00001C0F0000103A24BFF7
:1004400078C878C1FAD8520724BF30C830C144BF39
:1004500004680C607047000000230024002500267B
:10046000103A28BF78C1FBD8520728BF30C148BF17
:100470000B6070471FB500F055FF00F0F1FE04005F
:100480000020002100F038FF401C60601FBD10B547
:1004900010BD00F0A9FE1146FFF7ECFF00F086F852
:1004A00000F0D0FE03B4FFF7F2FF03BC00F0DCFE67
:1004B000401E00BF00BF00BF00BF00BF00BF00BFA5
:1004C00000BF00BF00BF00BF00BF00BF00BF00BF34
:1004D00000BF00BF00BF00BF00BF00BF00BF00BF24
:1004E00000BF00BF00BF00BF00BF00BF00BF00BF14
:1004F00000BF00BF00BF00BF00BF00BF00BF00BF04
:1005000000BF00BF00BF00BF00BF00BF00BF00BFF3
:1005100000BF00BF00BF00BF00BF00BF00BF00BFE3
:1005200000BFC5D1704700007749086000BF774918
:1005300009680129FBD10021744A1160704730B568
:100540000346002528466D1C1C5C05E02046FFF78D
:10055000EBFF28466D1C1C5C002CF7D130BDF8B5B4
:1005600004464FF0FF30A4FB00500146684A0023C8
:10057000284600F0F1FA0090009800F500606FF353
:100580000B0000906049083100980860F8BD00BF7A
:100590005E48143800680128FAD100205B491439FC
:1005A00008605948001F0068C0B2704792B04FF011
:1005B000000811270120B84056490860002415E0C2
:1005C000204604EBD0714910A4EB410129B1012070
:1005D000B84050490C39086004E00120B8404D494A
:1005E000103908600A2000F0ADF8641C0A2CE7DB23
:1005F00000204949086001208107086000BF464883
:1006000000680028FBD000204349086041481038AA
:10061000006840F040003F49103908600D214FF05C
:10062000A040C0F818170121C0F82017062036494D
:10063000103908600820344908390860B8F1000F03
:100640000AD1002030495031086005202E49143964
:10065000086020202F490860B8F1000F11D0072052
:1006600029490C39086005202749143908602020E1
:1006700028490860012129480160012022495031A0
:1006800008604FF4E130FFF76AFF04201E491C396F
:100690000860012022498860086000201B49143945
:1006A000086020A0FFF74BFF2CE0FFF770FF064625
:1006B0003F2D00D300257B2E00D1002502A84655F2
:1006C0006D1C7D2E09D145B1002002A9485501AA13
:1006D00016A102A800F0B8FA81463046FFF724FFC1
:1006E000B9F1010F0DD1012000F02CF80198FFF7AE
:1006F00036FF012000F026F80FA0FFF720FF4FF093
:10070000000900BFD1E700001C2500401C2100406B
:100710000024F40018050050000100401C070050A0
:10072000002000407B696E69747D00007B6261750A
:10073000643A25697D0000007B6368616E67657DB2
:100740000000000001B506E00098401E009040F255
:10075000E730FFF7ADFE00980028F5D108BD000096
:100760000948804709480047FEE7FEE7FEE7FEE745
:10077000FEE7FEE7FEE7FEE7FEE7FEE70448054981
:10078000054A064B704700001709000001040000ED
:1007900068000020684000206820002068200020B9
:1007A000DD48DE4908607047DD48007806280ED134
:1007B000DB48001D007800F00F0040B9D848083031
:1007C000007800F0F000502801D10120704700208F
:1007D000FCE7D348007806280ED1D148001D0078E8
:1007E00000F00F0040B9CE480830007800F0F0006B
:1007F000302801D1012070470020FCE7C84800786C
:1008000006280ED1C648001D007800F00F0040B940
:10081000C3480830007800F0F000302801D10120F2
:1008200070470020FCE7BE480078062820D1BC486D
:10083000001D007800F00F00D0B9B94808300078EA
:1008400000F0F000302801D101207047B448083092
:10085000007800F0F000402801D10120F5E7B04811
:100860000830007800F0F000502801D10120ECE7BA
:100870000020EAE7AA48007806280ED1A848001D03
:10088000007800F00F0040B9A5480830007800F06B
:10089000F000302801D1012070470020FCE7A0487B
:1008A0000078062820D19E48001D007800F00F0037
:1008B000D0B99B480830007800F0F000302801D112
:1008C0000120704796480830007800F0F00040287A
:1008D00001D10120F5E792480830007800F0F000DF
:1008E000502801D10120ECE70020EAE78C4800788D
:1008F00006280ED18A48001D007800F00F0040B98C
:1009000087480830007800F0F000302801D101203D
:1009100070470020FCE710B5FFF7E8FF10B18148F1
:1009200081494867FFF7BBFF28B180480068C0F3E2
:1009300042307F490860FFF79DFF28B17D4800687D
:1009400020F080707B490860FFF76DFF48B1002000
:10095000794908604FF08041C1F810017449091FBE
:100960000860FFF74BFF18B103207149643108603C
:10097000FFF72FFF68B105207049086001206F491B
:100980007831086000206D49083108603F20091F58
:100990000860FFF709FF002855D0694800686949D9
:1009A00008606748001D0068091D08606448083039
:1009B0000068091D086062480C300068091D086065
:1009C0005F4810300068091D08605D4814300068F9
:1009D000091D08605A48183000685A4920310860DB
:1009E00057481C300068091D0860554820300068D1
:1009F000091D0860524824300068091D08605048ED
:100A000028300068091D08604D482C300068091D19
:100A100008604B48303000684A4940310860484817
:100A200034300068091D0860454838300068091DE9
:100A3000086043483C300068091D08604048403069
:100A40000068091D08603B487438006840F4700075
:100A500038497439086000BF00BF00BFBFF34F8F33
:100A600000BF00BF00BF00BF00BF00BFBFF36F8F5C
:100A700000BF00BF00BF3448006800F0004030B93C
:100A80003148001D006800F00040002840D00120DF
:100A90002E49086000BF2E4800680028FBD01520B2
:100AA0002949086000BF2A4800680028FBD01521AA
:100AB0002548001D016000BF254800680028FBD0C4
:100AC00000202249086000BF214800680028FBD0B0
:100AD00000BF00BF00BF00BF00BFBFF34F8F00BF0C
:100AE00000BF00BF1348F038006800F4E060194907
:100AF0000843001D0F49F039086000BF00BF00BF68
:100B0000BFF34F8F00BF00BF00BF00BF00BFFDE7B6
:100B1000FFF746FE10BD00000090D003000000204B
:100B2000E00F00F00DF0ADBA00C007404402001025
:100B30003C050040FCED00E00C0100401056004078
:100B40000404001020C500400012001004E501401C
:100B500000E401400000FA0553EA020C00F069804D
:100B60002DE9F04B4FF00006002B1FBFB3FA83F5C1
:100B700003FA05F424FA05F65E4012BF1643B2FAF2
:100B800082F502FA05F4C5F120051EBF22FA05FC24
:100B900044EA0C04203556EA044C4FEA144418BFCA
:100BA000641C4FF000084FF00009904271EB030CF9
:100BB00039D3002919BFB1FA81F701FA07F6B0FA63
:100BC00080F700FA07F6C7F120071EBF20FA07FCDE
:100BD00046EA0C062037B6FBF4FCA7EB0507103FEE
:100BE00007F01F0BCBF120060CFA0BFB2CFA06F6D4
:100BF00044BFB3460026202FA4BF5E464FF0000B33
:100C00005BEA060C08BF4FF0010B19EB0B09ABFBBD
:100C1000027C48EB0608C01B06FB02CC0BFB03CC96
:100C200071EB0C01C1E70B46024641464846BDE860
:100C3000F08B13B54FF000004FF00001AFF30080D0
:100C4000BDE81C40704700000FB400B58DB010A97E
:100C5000099000910B904FF0FF300A9000200C900B
:100C6000064878440690064878446A4607900F99EB
:100C700009A800F0C5F80DB05DF814FBBB01000039
:100C8000D30100002DE9FF5F1D464FF0FF3B914669
:100C90004FF000085F46D5E90146A96901987F1C1D
:100CA0008847296A824688470028F6D1BAF1FF3F73
:100CB0000CD0002E24F4C06419DD600614D5BAF1FE
:100CC0002B0F09D0BAF12D0F0ED103E0584604B016
:100CD000BDE8F09F44F48064A96901987F1C8847AF
:100CE000761E8246002E02DDBAF1300F03D0B9F134
:100CF000000F26D032E0A969761E01987F1C44F4CB
:100D000000748847002E824605DDBAF1780F06D0C0
:100D1000BAF1580F03D0B9F1000F10D01EE0B9F1AD
:100D2000000F02D0B9F1100F18D1A969761E0198F1
:100D30007F1C24F4007488478246102002E00820BB
:100D400000E00A20814609E0A96908FB0908761E2F
:100D500001987F1C44F4007488478246002E05DD0C
:100D60004946504600F037F80028EDDAE969019865
:100D70008847A00502D46FF00100A8E7E00725D15D
:100D8000600613D5600502D5C8F1000000E04046BA
:100D900029680A1D2A600968220501D5087015E036
:100DA000220701D5088011E008600FE02868011DC6
:100DB00029600068210502D580F8008006E021073F
:100DC00002D5A0F8008001E0C0F8008038467EE738
:100DD0007047704770473A2800D2303820F0200220
:100DE000412A01D3A2F13700884201D34FF0FF30EE
:100DF000704700000268114413780160184670477C
:100E0000D160054979445161044979441162002156
:100E10001161114600F02EB8EDFFFFFF53000000F6
:100E2000426842B1016811F8013B23B1521EC0E98A
:100E30000012184670470121C160881E7047426841
:100E40005AB1C368016843B983688B4205D0491E13
:100E5000521CC0E90012002070474FF0FF3070476D
:100E600010B5044600F0E6F90068005D00F00100EE
:100E700010BD00002DE9F34F4FF0000A0C46564616
:100E80008DB001200C9001F10C000B9062690B9861
:100E900001219047051E2DD0252D2CD0216A884791
:100EA000C0B162690B9801219047216A88470028E8
:100EB000F7D16269411E0B98904700E0761CA1694A
:100EC0000D988847216A88470028F7D1E1690D9875
:100ED0008847DBE7A1690D988847A842074601D1FA
:100EE000761CD3E7E1690D9888477F1C02D1BAF1DF
:100EF000000F6FD06BE162690B9800273D463946C1
:100F000090472A2804D162690B9801219047012556
:100F1000DFF8D08262690B9801219047A0F130017F
:100F20000A290AD24745E5DC07EB870100EB4107B8
:100F3000303FDFD445F01005ECE7E90601D46FF04F
:100F400000476C280AD04C2814D0682815D06A288D
:100F50000DD074281CD07A281AD01DE062690B9835
:100F6000012190476C2802D045F0040514E045F0BB
:100F700002050DE045F020050AE062690B980121A9
:100F80009047682802D045F0080505E045F4006563
:100F900062690B9801219047C4E9015765283DD04B
:100FA00019DC58287AD00CDC452837D004DC2528F9
:100FB00026D041289ED131E046282FD0472899D10C
:100FC0002CE05B2877D0612828D063287CD0642867
:100FD00023D15AE0F6E06F2848D008DC66281DD0FF
:100FE00067281BD0692821D06E2816D127E07028E9
:100FF00045D0732868D0752847D078280DD14DE0AA
:10100000A1690D988847252805463FF469AFE16935
:101010000D9888476D1C3FF46AAFD8E00D992346C0
:101020006A466FF00100AFF30080C5E045F0400074
:1010300023464FF000026060A80736D43EE0E80780
:101040007FF447AF2068011D21600068290501D5A4
:1010500006701BE7290701D5068017E7A90703D506
:10106000F117C0E9006111E706600FE745F04000A5
:1010700023464FF008026060A80716D41EE040F631
:101080000E0125EA0100606016E045F040002346AD
:101090004FF00A026060A80707D40FE045F0400057
:1010A0006060A80708D5234610220D996FF0010053
:1010B000AFF3008080E007E0102223460D996FF027
:1010C0000100FFF7DFFD77E04FF0000963284F468E
:1010D000C8464B46CB4602D05B2806D038E0E8062F
:1010E00001D40120A060012732E06269D4F80CB07D
:1010F0000B98012190475E2807D14FF0010949461E
:101100006269D4F80CB00B989047216939B9002175
:101110000A4603AB43F82120491C0829FADBD8B35F
:10112000216949B308F1010862690B9801219047D0
:101130005D28F4D1B9F1000F09D0002003A951F8BE
:101140002020D24341F82020401C0828F7DB03ABC5
:101150002069002820794FEA40701ED05B46224665
:10116000CDF80080CDE901970D9900286FF00100BE
:1011700020DAAFF300801FE0C11703AA00EBD161B2
:101180004B1121F01F0102EB8302411A1368012069
:10119000884003431360C7E719E00D9922460028F1
:1011A0006FF00100009702DAAFF3008004E0AFF3C4
:1011B000008001E0AFF3008000280ADA401C06D16D
:1011C0000C9820B14FF0FF300FB0BDE8F08F5046C3
:1011D000FAE7E90701D10AF1010A064400200C9060
:1011E00054E60000CCCCCC0C754600F035F8AE4689
:1011F00005006946534620F00700854618B020B523
:10120000FFF7BCFABDE820404FF000064FF00007A2
:101210004FF000084FF0000B21F00701AC46ACE89E
:10122000C009ACE8C009ACE8C009ACE8C0098D460B
:101230007047000010B500F013F8001D10BD00BF8E
:10124000B900000010B50446AFF300802046BDE8A9
:101250001040FFF727B90000004870470400002045
:10126000004870472400002001491820ABBEFEE76B
:10127000260002004FF0013C50F8042B51F8043BCB
:101280009A4221D1A2EB0C03934313EACC1317D15A
:1012900050F8042B51F8043B9A4215D1A2EB0C03F1
:1012A000934313EACC130BD150F8042B51F8043BB1
:1012B0009A4209D1A2EB0C03934313EACC13DBD07F
:1012C0004FF00000704700BFD01A01BAB1FA81F1A7
:1012D00001F0180122FA01F0CB40C1F12001DBB28C
:1012E000C0B2C01A2CFA01F3D11A914311EAC3110A
:1012F000E6D170477047000010B500290AD0087881
:10130000002807D005487844FFF7B4FF002801D033
:10131000002010BD0248784410BD00004A000000C3
:10132000420000004FF04070E1EE100A70470000EC
:101330006014000000000020040000003C040000D5
:101340006414000004000020644000005804000001
:101350001001000043000000F8FFFFFF0040404084
:101360004040404040404141414141404040404078
:101370004040404040404040404040404005020224
:1013800002020202020202020202020202202020E3
:10139000202020202020200202020202020290903F
:1013A000909090901010101010101010101010103D
:1013B0001010101010101010020202020202888891
:1013C000888888880808080808080808080808089D
:1013D0000808080808080808020202024000000085
:1013E00000000000000000000000000000000000FD
:1013F00000000000000000000000000000000000ED
:1014000000000000000000000000000000000000DC
:1014100000000000000000000000000000000000CC
:1014200000000000000000000000000000000000BC
:1014300000000000000000000000000000000000AC
:10144000000000000000000000000000000000009C
:10145000000000000000000000000000000000008C
:041460000090D00325
:0400000500000401F2
:00000001FF
