:020000040000FA
:1000000068400020DD070000E5070000E70700006A
:10001000E9070000EB070000ED070000000000000A
:10002000000000000000000000000000EF070000DA
:10003000F107000000000000F3070000F5070000D2
:10004000F7070000F7070000F7070000F7070000B8
:10005000F7070000F7070000F7070000F7070000A8
:10006000F7070000F7070000F7070000F707000098
:10007000F7070000F7070000F7070000F707000088
:10008000F7070000F7070000F7070000F707000078
:10009000F7070000F7070000F7070000F707000068
:1000A000F7070000F7070000F7070000F707000058
:1000B000F7070000F7070000000000000000000044
:1000C000F7070000F7070000F7070000F707000038
:1000D000F7070000F7070000F70700000000000026
:1000E0000000000000000000000000000000000010
:1000F0000000000000000000000000000000000000
:1001000000000000000000000000000000000000EF
:1001100000000000000000000000000000000000DF
:1004000000F002F800F045F80AA090E8000C8244E1
:100410008344AAF10107DA4501D100F03AF8AFF2BE
:10042000090EBAE80F0013F0010F18BFFB1A43F0D2
:1004300001031847440D0000640D0000103A24BF6A
:1004400078C878C1FAD8520724BF30C830C144BF39
:1004500004680C607047000000230024002500267B
:10046000103A28BF78C1FBD8520728BF30C148BF17
:100470000B6070471FB500F079FE00F015FE040018
:100480000020002100F05CFE401C60601FBD10B524
:1004900010BD00F0CDFD1146FFF7ECFF00F053F862
:1004A00000F0F4FD03B4FFF7F2FF03BC00F040FEE0
:1004B000B4490860B448D0F81C110129FBD10021CF
:1004C000C0F81C11704700B503460078012203E014
:1004D000FFF7EEFF985C521C0028F9D100BDA94936
:1004E0000831B0F5165F13D0B0F5615F12D0B0F5EA
:1004F000964F13D0B0F5E14F12D0B0F5164F11D092
:10050000B0F5614F10D0B0F5E13F06D19F4803E050
:100510009F4801E04FF46C10086070479D48FBE76E
:100520009D48F9E79D48F7E79D48F5E79648D0F8DC
:1005300008110129FBD10021C0F808119148001FC2
:100540000068C0B27047984B92B0002795494FF4AD
:10055000003911204FF0010AC3F800904FF48012C7
:100560001A60DFF844C2ACF1100CCCF800208F4DBB
:100570002D685FEAC5780CF1040500D02A604A4670
:10058000D046A9462A6000221546521C11958A427F
:10059000FBDB08FA00F2CCF80020002001E0401C50
:1005A00011958842FBDBC246C846C9F800200020EE
:1005B00001E0401C11958842FBDBCCF800200020B4
:1005C00001E0401C11958842FBDBC8F800200020A8
:1005D00001E0401C11958842FBDBCCF80020002094
:1005E00001E0401C11958842FBDBC8F80020002088
:1005F00001E0401C11958842FBDBCCF80020002074
:1006000001E0401C11958842FBDB5046C8F80020F1
:100610004FF08041C1F80051C1F800A0D1F800218D
:10062000002AFBD0C1F80051DCF8001041F0400175
:10063000CCF800105E4A0D2111605D490831086058
:10064000504A0621103A11604E4A0821083A1160BA
:10065000DFF83091DFF82CC109F150090522ACF127
:10066000140C4FF0200847B3464F07210C3F396068
:10067000CCF80020C3F800804D49091D0860C9F876
:100680000000404A4149083211603E4A04211C3AA8
:1006900011603D4988600860C1F8085145A0FFF726
:1006A00012FFE94644F62068FFF740FF07463F2C5B
:1006B00000D300247B2F07D007E0C9F80050CCF806
:1006C0000020C3F80080DCE7002409F80470641CF3
:1006D0007D2F08D13CB109F8045010AA37A1684613
:1006E00000F0D6F906463846FFF7E2FE012EDBD1D0
:1006F00000204246401C11959042FBDB1098FFF70A
:10070000EEFE0020401C11959042FBDB2EA0FFF76F
:10071000DAFE0026C8E7884201D101207047002098
:100720007047491CB1F5007F01D3A1F500718842E3
:1007300001D1012070470020704770B50D46044676
:1007400011462846FFF7EDFF08B100F00EF8A3545C
:1007500070BD10B50B46044611461846FFF7DBFF87
:1007600008B100F002F8E05C10BDBFF34F8F1948EC
:100770000168194A01F4E06111430160BFF34F8F32
:1007800000BFFDE71C2500400020004000E0D7012D
:100790000050270000A04E0000F0750000509D00A2
:1007A00000F0EB00400D030018050050000400406D
:1007B000180700507B696E69747D00007B6261756B
:1007C000643A25697D0000007B6368616E67657D22
:1007D000000000000CED00E00400FA050948804725
:1007E00009480047FEE7FEE7FEE7FEE7FEE7FEE713
:1007F000FEE7FEE7FEE7FEE704480549054A064B2B
:100800007047000025080000010400006800002077
:1008100068400020682000206820002090498F4810
:100820000860704770B58F488E4A00230078121D0B
:10083000111D0125062807D11478240704D10C784E
:10084000C4F30314032C02D0062804D00FE0874E13
:10085000854C74670EE01478240708D10C78C4F333
:100860000314032C06D0042C04D0052C02D0062837
:1008700009D010E04FF08054D4F844427C4EC4F3C9
:100880004234346002E01478240704D10C78C4F3B5
:100890000314032C02D0062806D011E0754C2668FC
:1008A00026F0807626600EE01478240708D10C78B4
:1008B000C4F30314032C06D0042C04D0052C02D05E
:1008C00006280AD011E04FF08044C4F80C31C4F877
:1008D0001031674C241F236002E01478240704D1F0
:1008E0000C78C4F30314032C02D0062805D00CE0C6
:1008F0005F4A0320643210600AE01478240704D1B0
:100900000C78C4F30314032C02D006280DD06AE03F
:10091000594A05201060584878300560564808301C
:1009200003603F20121D106002E0107800075AD1CA
:100930000878C0F30310052855D150480068504985
:1009400008604E48001D0068091D08604B480830CB
:100950000068091D086049480C300068091D0860DE
:10096000464810300068091D08604448143000688B
:10097000091D08604148183000684149203108606D
:100980003E481C300068091D08603C482030006863
:10099000091D0860394824300068091D086037487F
:1009A00028300068091D086034482C300068091D93
:1009B00008603248303000683149403108602F48C3
:1009C00034300068091D08602C4838300068091D63
:1009D00008602A483C300068091D086027484030FC
:1009E0000068091D086023487438016841F47001EB
:1009F0000160BFF34F8FBFF36F8F4FF01024D4F817
:100A00000002002803DBD4F80402002822DA1D4A81
:100A100015601D4801680029FCD01525C4F8005256
:100A200001680029FCD0C4F8045201680029FCD0F8
:100A3000136001680029FCD0BFF34F8F0D48F038D8
:100A40000168124A01F4E06111430160BFF34F8F66
:100A500000BFFDE702490148086070BD0090D00367
:100A600000000020E00F00F00DF0ADBA00C007401C
:100A70003C050040FCED00E010560040040400106E
:100A800020C5004004E5014000E401400400FA05EF
:100A90000FB400B58DB010A9099000910B904FF0E4
:100AA000FF300A9000200C900648784406900648D3
:100AB00078446A4607900F9909A800F0C5F80DB070
:100AC0005DF814FBBB010000D30100002DE9FF5FBE
:100AD0001D464FF0FF3B91464FF000085F46D5E9B9
:100AE0000146A96901987F1C8847296A8246884780
:100AF0000028F6D1BAF1FF3F0CD0002E24F4C064D8
:100B000019DD600614D5BAF12B0F09D0BAF12D0FFB
:100B10000ED103E0584604B0BDE8F09F44F4806471
:100B2000A96901987F1C8847761E8246002E02DD47
:100B3000BAF1300F03D0B9F1000F26D032E0A96925
:100B4000761E01987F1C44F400748847002E82466C
:100B500005DDBAF1780F06D0BAF1580F03D0B9F11C
:100B6000000F10D01EE0B9F1000F02D0B9F1100F44
:100B700018D1A969761E01987F1C24F40074884757
:100B80008246102002E0082000E00A20814609E0A9
:100B9000A96908FB0908761E01987F1C44F40074BB
:100BA00088478246002E05DD4946504600F037F85A
:100BB0000028EDDAE96901988847A00502D46FF0B2
:100BC0000100A8E7E00725D1600613D5600502D52E
:100BD000C8F1000000E0404629680A1D2A60096843
:100BE000220501D5087015E0220701D5088011E023
:100BF00008600FE02868011D29600068210502D502
:100C000080F8008006E0210702D5A0F8008001E00E
:100C1000C0F8008038467EE77047704770473A2832
:100C200000D2303820F02002412A01D3A2F137004F
:100C3000884201D34FF0FF30704700000268114432
:100C40001378016018467047D160054979445161B5
:100C500004497944116200211161114600F02EB857
:100C6000EDFFFFFF53000000426842B1016811F838
:100C7000013B23B1521EC0E9001218467047012102
:100C8000C160881E704742685AB1C368016843B9A1
:100C900083688B4205D0491E521CC0E90012002017
:100CA00070474FF0FF30704710B5044600F0E6F98A
:100CB0000068005D00F0010010BD00002DE9F34F59
:100CC0004FF0000A0C4656468DB001200C9001F101
:100CD0000C000B9062690B9801219047051E2DD0E6
:100CE000252D2CD0216A8847C0B162690B9801215B
:100CF0009047216A88470028F7D16269411E0B9806
:100D0000904700E0761CA1690D988847216A8847C2
:100D10000028F7D1E1690D988847DBE7A1690D98B4
:100D20008847A842074601D1761CD3E7E1690D98B0
:100D300088477F1C02D1BAF1000F6FD06BE1626966
:100D40000B9800273D46394690472A2804D162690E
:100D50000B98012190470125DFF8D08262690B983A
:100D600001219047A0F130010A290AD24745E5DC6C
:100D700007EB870100EB4107303FDFD445F010055A
:100D8000ECE7E90601D46FF000476C280AD04C2844
:100D900014D0682815D06A280DD074281CD07A2861
:100DA0001AD01DE062690B98012190476C2802D08F
:100DB00045F0040514E045F002050DE045F020057E
:100DC0000AE062690B9801219047682802D045F03B
:100DD000080505E045F4006562690B98012190471C
:100DE000C4E9015765283DD019DC58287AD00CDCBD
:100DF000452837D004DC252826D041289ED131E073
:100E000046282FD0472899D12CE05B2877D061283D
:100E100028D063287CD0642823D15AE0F6E06F28DC
:100E200048D008DC66281DD067281BD0692821D04F
:100E30006E2816D127E0702845D0732868D0752811
:100E400047D078280DD14DE0A1690D988847252815
:100E500005463FF469AFE1690D9888476D1C3FF482
:100E60006AAFD8E00D9923466A466FF00100AFF3F0
:100E70000080C5E045F0400023464FF0000260606E
:100E8000A80736D43EE0E8077FF447AF2068011D8D
:100E900021600068290501D506701BE7290701D5E7
:100EA000068017E7A90703D5F117C0E9006111E72C
:100EB00006600FE745F0400023464FF008026060EF
:100EC000A80716D41EE040F60E0125EA0100606076
:100ED00016E045F0400023464FF00A026060A80784
:100EE00007D40FE045F040006060A80708D523460E
:100EF00010220D996FF00100AFF3008080E007E051
:100F0000102223460D996FF00100FFF7DFFD77E017
:100F10004FF0000963284F46C8464B46CB4602D0E7
:100F20005B2806D038E0E80601D40120A060012744
:100F300032E06269D4F80CB00B98012190475E282A
:100F400007D14FF0010949466269D4F80CB00B98FB
:100F50009047216939B900210A4603AB43F82120A3
:100F6000491C0829FADBD8B3216949B308F1010803
:100F700062690B98012190475D28F4D1B9F1000F07
:100F800009D0002003A951F82020D24341F82020A5
:100F9000401C0828F7DB03AB2069002820794FEAC2
:100FA00040701ED05B462246CDF80080CDE9019707
:100FB0000D9900286FF0010020DAAFF300801FE0E8
:100FC000C11703AA00EBD1614B1121F01F0102EB05
:100FD0008302411A13680120884003431360C7E766
:100FE00019E00D99224600286FF00100009702DAFF
:100FF000AFF3008004E0AFF3008001E0AFF30080C6
:1010000000280ADA401C06D10C9820B14FF0FF30BE
:101010000FB0BDE8F08F5046FAE7E90701D10AF1B9
:10102000010A064400200C9054E60000CCCCCC0C05
:10103000754600F035F8AE4605006946534620F087
:101040000700854618B020B5FFF7D6FBBDE8204065
:101050004FF000064FF000074FF000084FF0000B74
:1010600021F00701AC46ACE8C009ACE8C009ACE827
:10107000C009ACE8C0098D467047000010B500F00B
:1010800013F8001D10BD00BFB900000010B50446E4
:10109000AFF300802046BDE81040FFF703BA000020
:1010A00000487047040000200048704724000020DA
:1010B0004FF0013C50F8042B51F8043B9A4221D1E7
:1010C000A2EB0C03934313EACC1317D150F8042B73
:1010D00051F8043B9A4215D1A2EB0C03934313EA57
:1010E000CC130BD150F8042B51F8043B9A4209D190
:1010F000A2EB0C03934313EACC13DBD04FF00000B8
:10110000704700BFD01A01BAB1FA81F101F018019D
:1011100022FA01F0CB40C1F12001DBB2C0B2C01A0B
:101120002CFA01F3D11A914311EAC311E6D17047A9
:1011300001491820ABBEFEE7260002007047000000
:1011400010B500290AD00878002807D0054878444F
:10115000FFF7AEFF002801D0002010BD0248784400
:1011600010BD00004A000000420000004FF0407037
:10117000E1EE100A70470000A812000000000020F5
:10118000040000003C040000AC1200000400002039
:1011900064400000580400001001000043000000FB
:1011A000F8FFFFFF00404040404040404040414188
:1011B000414141404040404040404040404040402C
:1011C00040404040400502020202020202020202C6
:1011D00002020202022020202020202020202002C3
:1011E0000202020202029090909090901010101053
:1011F00010101010101010101010101010101010EF
:101200000202020202028888888888880808080882
:10121000080808080808080808080808080808084E
:101220000202020240000000000000000000000076
:1012300000000000000000000000000000000000AE
:10124000000000000000000000000000000000009E
:10125000000000000000000000000000000000008E
:10126000000000000000000000000000000000007E
:10127000000000000000000000000000000000006E
:10128000000000000000000000000000000000005E
:10129000000000000000000000000000000000004E
:0C12A00000000000000000000090D003DF
:0400000500000401F2
:00000001FF
